:020000040800F2
:1000000080510020290200084D240008AD2100087D
:100010004924000821050008E52C00080000000024
:10002000000000000000000000000000C1240008E3
:100030003105000800000000512400088525000853
:10004000430200084302000843020008430200087C
:100050004302000843020008350500084302000877
:100060003D0500084505000843020008430200085A
:10007000430200084302000843020008430200084C
:10008000430200084302000843020008430200083C
:10009000430200084302000843020008430200082C
:1000A000430200084302000843020008430200081C
:1000B00043020008430200086126000843020008CA
:1000C00043020008430200084302000843020008FC
:1000D00043020008792C000843020008430200088C
:1000E00043020008430200084302000843020008DC
:1000F00043020008430200084302000843020008CC
:1001000043020008430200084302000843020008BB
:1001100043020008430200084302000843020008AB
:1001200043020008430200082505000843020008B6
:10013000430200084302000843020008430200088B
:10014000430200084302000843020008430200087B
:10015000430200084302000843020008430200086B
:10016000430200084302000843020008430200085B
:100170004302000843020008430200080000000098
:10018000430200084302000800F002F800F03CF8C7
:100190000AA090E8000C82448344AAF10107DA45E2
:1001A00001D100F031F8AFF2090EBAE80F0013F0F8
:1001B000010F18BFFB1A43F00103184768510000F4
:1001C00088510000103A24BF78C878C1FAD8520785
:1001D00024BF30C830C144BF04680C6070470000C1
:1001E0000023002400250026103A28BF78C1FBD840
:1001F000520728BF30C148BF0B6070471FB504F0DD
:10020000D9FF1FBD10B510BD00F04FF91146FFF723
:10021000F5FF02F069FD00F06DF903B4FFF7F2FF9E
:1002200003BC00F075F90000094880470948004701
:10023000FEE7FEE7FEE7FEE7FEE7FEE7FEE7FEE796
:10024000FEE7FEE704480549054A064B70470000F3
:100250004D26000889010008804B002080510020B5
:10026000804D0020804D002053EA020C00F0698090
:100270002DE9F04B4FF00006002B1FBFB3FA83F5BA
:1002800003FA05F424FA05F65E4012BF1643B2FAEB
:1002900082F502FA05F4C5F120051EBF22FA05FC1D
:1002A00044EA0C04203556EA044C4FEA144418BFC3
:1002B000641C4FF000084FF00009904271EB030CF2
:1002C00039D3002919BFB1FA81F701FA07F6B0FA5C
:1002D00080F700FA07F6C7F120071EBF20FA07FCD7
:1002E00046EA0C062037B6FBF4FCA7EB0507103FE7
:1002F00007F01F0BCBF120062CFA06F60CFA0BFBCD
:1003000044BFB3460026202FA4BF5E464FF0000B2B
:100310005BEA060C08BF4FF0010B19EB0B0948EB29
:100320000608ABFB027C06FB02CC0BFB03CCC01B1C
:1003300071EB0C01C1E70B46024641464846BDE859
:10034000F08B13B5084318BF4FF0FF300146AFF3F1
:100350000080BDE81C407047032A40F2308010F056
:10036000030C00F0158011F8013BBCF1020F624450
:1003700098BF11F801CB00F8013B38BF11F8013BE1
:10038000A2F1040298BF00F801CB38BF00F8013B8E
:1003900011F0030300F05780083AC0F0088051F8CC
:1003A000043B083A51F804CBA0E80810F5E7121D09
:1003B0005CBF51F8043B40F8043BAFF30080D20728
:1003C00024BF11F8013B11F801CB48BF11F8012BF4
:1003D00024BF00F8013B00F801CB48BF00F8012B17
:1003E000704702F0FF0343EA032242EA024200F0B0
:1003F00002B84FF0000200B51346944696462039E5
:1004000022BFA0E80C50A0E80C50B1F12001BFF4CD
:10041000F7AF090728BFA0E80C5048BF0CC05DF833
:1004200004EB890028BF40F8042B08BF704748BF81
:1004300020F8022B11F0804F18BF00F8012B7047F5
:1004400070477047704710B5203AC0F00B80B1E894
:100450001850A0E81850B1E81850A0E81850203AF9
:10046000BFF4F5AF5FEA027C24BFB1E81850A0E802
:10047000185044BF18C918C0BDE810405FEA827C1C
:1004800024BF51F8043B40F8043B08BF7047D20733
:1004900028BF31F8023B48BF11F8012B28BF20F8D4
:1004A000023B48BF00F8012B7047754600F02CF85E
:1004B000AE4605006946534620F00700854618B051
:1004C00020B5FFF7BFFEBDE820404FF000064FF01B
:1004D00000074FF000084FF0000BAC46ACE8C00935
:1004E000ACE8C009ACE8C009ACE8C00921F00701DC
:1004F0008D46704710B50446AFF300802046BDE836
:100500001040FFF78ABE000000487047100000202E
:1005100001491820ABBEFEE726000200704700002C
:10052000FEE7000040F2DC00C2F2000000F066B816
:1005300070470000012000F043BA0000042000F0E2
:100540003FBA0000082000F03BBA000072B600BFBE
:10055000FEE7000070B5866D044600F029FB94F8B4
:100560003510022920D105462068216C026822F04E
:1005700016020260426922F08002426109B9A16C50
:1005800019B1016821F008010160016821F0010141
:10059000016000BF0068C0070AD000F009FB401BE3
:1005A00005280FD82068F5E78020606501200EE05F
:1005B000E06D3F2101FA00F0B060012084F83500C1
:1005C000002004E020206065032084F8350000212D
:1005D00084F8341070BD000090F83510022909D15C
:1005E000052180F835100068016821F001010160E3
:1005F000002070478021416501207047F0B581B02F
:1006000004460020009040F20000C2F200000268A0
:10061000D4E9166048F2B51337680821C1F64E33A5
:1006200081403942A2FB03250CD0226813685B0786
:1006300008D5136823F004031360B160616D41F0C5
:100640000101616501218140394208D02268526967
:10065000120604D5B160616D41F0020161650421AB
:100660008140394208D022681268920704D5B160EF
:10067000616D41F00401616510218140394215D05E
:1006800020680268120711D5B16002680168520340
:1006900006D4C90506D4016821F00801016001E013
:1006A000080342D4216C09B120468847E16D20201F
:1006B00000FA01F23A4244D020680368DB0640D5D4
:1006C000B26094F835300268052B1ED122F0160274
:1006D0000260426922F080024261226C0AB9A26C77
:1006E0001AB1026822F0080202603F208840B06020
:1006F000012084F83500216D0020002984F83400A1
:1007000057D02046884701B0F0BD0168520310D48D
:10071000C90512D4016821F010010160012084F89C
:100720003500002084F8340007E0A16C0029BBD11B
:10073000BCE7080301D4616C00E0E16B09B120461D
:100740008847606DA8B3606DC0072ED0052084F87F
:1007500035002068A90A026822F001020260009AAE
:1007600001328A4200921AD80268D20717D0009A42
:1007700001328A42009212D80268D2070FD0009A42
:1007800001328A4200920AD80268D20707D0009A42
:1007900001328A42009202D80268D207DFD10120DA
:1007A00084F83500002084F83400E16C09B120465B
:1007B000884701B0F0BD00002DE9F041044600F08B
:1007C000F7F9002C4DD00546022084F835000020B2
:1007D000216884F83400086820F00100086000BF38
:1007E0000868C00706D000F0E3F9401B052865D86B
:1007F0002168F5E7086848F23F02CFF21002D4E919
:100800000135024004F10C0E9EE8C1511A432A43FF
:1008100010433043384340EA0800626A40EA0C0063
:10082000042A40EA0E031FD1D4E90A5E206B4EEA87
:100830000302104308604869BEF1000F20F0030076
:1008400040EA050040F0040C14D0B8F5005F39D040
:10085000B8F1000F45D1022D46D0012D3BD04DB946
:1008600042E00120BDE8F0810B60486920F00700FC
:1008700040EA020C6FF00F004AF6AB2250FA81F00A
:10088000CAF6AA22A0FB02231A0945F2E613C0F613
:1008900000039A5C40F2FF335F284FF03F00C1F83D
:1008A00014C021EA030100FA02F088BF0431C4E950
:1008B000161288600023012200201CE0032220235E
:1008C000032018E0032DD5D8012240230120DFE8C2
:1008D00005F0120B1202AEF1C070B0FA80F04009C0
:1008E00004E0032D04D3C5D1CEF300600028C1D0AD
:1008F000012240230120636584F83520BDE8F081A2
:1009000070B590F834C0BCF1010F45D04FF0010C28
:1009100080F834C0D0F858E090F835C0BCF1010F31
:1009200037D14FF0020C80F835C04FF0000CC0F802
:1009300054C0D0F800C08468056CC06DDCF800605D
:10094000402C26F48026CCF80060CCF804300B460E
:1009500004BF13460A463F2101FA00F0CCF80830E4
:10096000CCF80C20CEF80800DCF8000040F01600AF
:10097000CCF800002DB1DCF8000040F00800CCF805
:100980000000DCF8000040F00100CCF8000000207E
:1009900070BD002180F83410022070BD082888BF87
:1009A0007047012101FA00F010F4897F06D0002081
:1009B000C4F202004FF4807100F0ECB87047000000
:1009C00043F61441C4F201010A68024214BF0860F0
:1009D0007047FFF7E3BF00002DE9F04F82B000F150
:1009E0003E4241F6004502F1FF77C4F202050822BB
:1009F0004FEAB726A84208BF0722072E38BF4FEAA2
:100A0000B7224FF0010A002400274FF0000800929F
:100A100008E000BF023708F10108202F04F10404A8
:100A200000F0B4800E680AFA08F916EA090FF1D04E
:100A3000D1F804A00AF0030BABF10106012E17D880
:100A40000322866802FA07FECA6826EA0E06BA4042
:100A5000324382604268CAF3001522EA090205FAAD
:100A600008F54FEA480C6FEA0E062A4342600BE095
:100A70000322BA40D643BBF1030FBC4604D1BC46A7
:100A80004FF0030B22E000BFC2688D68324005FAC8
:100A90000CF52A43BBF1020FC26017D16FF00302BD
:100AA00002EA5802024404F01C030F25D2F820E0A9
:100AB00005FA03FA0D692EEA0A0E05FA03F343EA72
:100AC0000E031362D1F804A00AF0030B02680BFABC
:100AD0000CF332401A431AF4403F4FF0010A02600F
:100AE00098D0002243F644030192C4F202031A682C
:100AF00043F6004E42F480421A601A68C4F2010EB6
:100B000002F480420192019A28F003024FF6084C49
:100B10007244CFF6FF7C52F80C3004F00C060F251F
:100B2000B540AB43009D05FA06F6334342F80C305E
:100B3000DEF808204B6842EA090643F60C4CDD0259
:100B400058BF22EA0906CEF80860C4F2010CDCF8AE
:100B500000209D0242EA090658BF22EA0906CCF8A5
:100B60000060DEF804209D0342EA090658BF22EA2D
:100B70000906CEF80460DEF80020DB0342EA09062D
:100B800058BF22EA0906CEF8006043E702B0BDE88C
:100B9000F08F0000426902EA0103914341EA0341F8
:100BA00081617047002A08BF090481617047000015
:100BB00044F2A030C2F200000068704740F2040026
:100BC00044F2A031C2F20000C2F2000100780A68CB
:100BD000104408607047000080B543F60040C4F23E
:100BE0000200016841F400710160016841F4806114
:100BF0000160016841F480710160032000F0BEF8DB
:100C00000F2000F005F800F05BF8002080BD000028
:100C100070B586B0002543F640010195C4F202018B
:100C20000A68044642F004020A60096801A801F05B
:100C3000040101910199694600F060F9049E002EBB
:100C400018BF012600F07AF94DF68361B040C4F276
:100C50001B31A0FB01014FF0FF3000EB914140F24E
:100C60003C1040F60002C2F20000C4F2000240F262
:100C7000E733C0E90021C0E902530561856100F056
:100C8000CBFB0546C8B940F23C10C2F2000000F0B0
:100C90000DFC054688B91E2000F034F80F2C0BD847
:100CA0001E2021460022002500F03CF840F20800FA
:100CB000C2F20000046000E00125284606B070BDC5
:100CC00082B0002043F640010190C4F202014A685C
:100CD00042F480424A604A6802F480420192019ADA
:100CE00000900868002240F08050086008680F21DA
:100CF00000F08050009000986FF0010002B000F00A
:100D000011B80000002848BF704700F01F01012201
:100D100002FA01F14EF200124009CEF2000242F84E
:100D20002010704710B54EF60C5CCEF2000CDCF8CB
:100D30000030C3F3022E8EF00704042C28BF0424D5
:100D4000BEF103034FF0FF3E0EFA04F438BF002358
:100D5000A14399400EFA03F39A4300F00F03043BBA
:100D60001143634409010C3300F16042B0F1FF3FCD
:100D7000C8BF02F56443197010BD00004EF60C5157
:100D8000CEF200010A684FF6FF031A4060F30A2210
:100D900042F0806040F0FD70086070472DE9F0413E
:100DA000002800F08B8043F60808C4F202080446CD
:100DB000D8F8F8030D4600F00700884207D288F8FB
:100DC000F853D8F8F80300F00700A84276D120685D
:100DD000810717D5410705D5D8F8001041F4E05137
:100DE000C8F80010010705D5D8F8001041F460419B
:100DF000C8F80010D8F80010A26821F0F0011143E3
:100E0000C8F80010C0073FD1D8F8F80300F0070079
:100E1000A84207D988F8F853D8F8F80300F007007B
:100E2000A8424BD12068410707D5D8F80010E268E6
:100E300021F4E0511143C8F80010000708D5D8F894
:100E40000000216920F4604040EAC100C8F80000B9
:100E500000F09CF8D8F8001045F2CE12C1F303114F
:100E6000C0F60002515C40F2000220FA01F140F2AB
:100E70000800C2F200000068C2F200021160FFF731
:100E8000C7FE0020BDE8F0816068811E022907D2FC
:100E900058F8081C89015CBF0120BDE8F08110E012
:100EA000012807D158F8081C89035CBF0120BDE860
:100EB000F08106E058F8081C890702D40120BDE83B
:100EC000F081D8F8001021F003010843C8F80000B1
:100ED000FFF76EFE064641F2883700BFD8F80000E3
:100EE000616800F00C00B0EB810F8DD0FFF760FE61
:100EF000801BB842F2D90320BDE8F0810F220260C6
:100F000043F60802C4F20202136803F003034360CD
:100F1000136803F0F0038360136803F4E053C360C5
:100F2000D2F800C04FF4E05303EADC030361D2F8C7
:100F3000F80300F0070008607047000040F200006E
:100F400043F60801C2F20000C4F202010068096819
:100F500045F2DE12C1F38221C0F60002515CC840A6
:100F60007047000040F2000043F60801C2F20000A2
:100F7000C4F202010068096845F2DE12C1F3423191
:100F8000C0F60002515CC8407047000010B543F63F
:100F90000404C4F20204606800F00C0142F2004054
:100FA0000829C0F2F40007D0042918BF10BD41F28F
:100FB0000020C0F27A0010BD216801F03F022168D4
:100FC00023684902C3F3881105D4A1FB0001002363
:100FD000FFF74AF906E041F20020C0F27A004843E8
:100FE000B0FBF2F021680222C1F3014102EB4101A2
:100FF000B0FBF1F010BD00002DE9F04182B00028F7
:1010000069D00446007843F60006C007C4F2020621
:101010000BD0B06800F00C00042840F09C803068D1
:10102000800302D56068002855D0207880071AD543
:10103000B06810F00C0F09D0B06800F00C00082860
:1010400040F0A3807068400200F19F803068800704
:1010500002D5E06801283ED13068216920F0F8000F
:1010600040EAC10030602078000738D4207840077B
:101070004BD4A5695DB3B06800F00C00082840F0BF
:10108000B780012D27D07068E16900F480028A42A0
:1010900021D1216A00F03F028A421CD147F6C0717B
:1010A000626A0140B1EB821F15D1A26A0023CFF61C
:1010B000FF7303EBC23200F440316FF30F02914231
:1010C00009D1E16A00F07060B0EB016F03D100203C
:1010D00002B0BDE8F081012002B0BDE8F081606996
:1010E000002840F20000C4F2472071D00121C0F86E
:1010F000801EFFF75DFD0546706F8007B6D4FFF7D1
:1011000057FD401B0228F7D9D7E0306C10F080580B
:101110000AD100200190306C40F080503064306C77
:1011200000F080500190019847F20007C4F20007D8
:101130003868C0053ED4386840F480703860FFF7E6
:1011400037FD05463868C00534D4FFF731FD401B34
:101150000228F7D9B1E0B06800F00C00082803D1EC
:10116000706840023FF55BAF6068B0F5803F07D024
:10117000B0F5A02F40F08B80306840F480203060C4
:10118000306840F4803030608BE0E068002851D057
:101190000020C4F2472001210160FFF709FD054648
:1011A000306880073FF558AFFFF702FD401B02286B
:1011B000F6D982E0A068012805D005284ED1306F0D
:1011C00040F004003067306F40F0010030674FE0BE
:1011D0000021C0F8801EFFF7EBFC0546706F80070A
:1011E0007FF544AFFFF7E4FC401B0228F6D964E02A
:1011F0000027C4F2472700203866FFF7D9FC022DEC
:1012000005460BD1306880015BD5FFF7D1FC401B50
:1012100002284FF00300F5D95AE700BF306880017B
:101220007FF555AFFFF7C4FC401B02284FF00300C9
:10123000F4D94DE70020C4F2472000210160FFF7F8
:10124000B7FC0546306880077FF50DAFFFF7B0FCAF
:10125000401B02284FF00300F4D939E7316F002812
:1012600021F001013167316F21F0040131674BD06A
:10127000FFF79EFC054641F2883700BF306F8007BC
:1012800053D4FFF795FC401BB842F7D915E03168FD
:10129000002821F480313160316821F480213160EF
:1012A0004CD0FFF785FC0546306880033FF5BDAEA6
:1012B000FFF77EFC401B6428F6D9032002B0BDE88E
:1012C000F08104F11C052FCD08430021CFF6FF71FA
:1012D00040EA821001EBC3316FF30F0140EA056071
:1012E0000843706001203866FFF762FC044600BFC7
:1012F000306880013FF5EBAEFFF75AFC001B022877
:101300004FF00300F4D9E3E6FFF752FC054641F243
:10131000883700BF306F800707D5FFF749FC401BB7
:10132000B8424FF00300F5D9D2E6B8F1000F7FF4D0
:10133000A0AE306C20F0805030649AE6FFF738FCA5
:10134000054600BF306880037FF56FAEFFF730FCC5
:10135000401B64284FF00300F4D9B9E67047000041
:101360007047000010B590F83C20012A4FF00202AF
:101370004FD080F83D200268D2F804E0D2F808C0CF
:101380000C682EF07003234341F2FF74C4F2000492
:10139000A24253600DDC40F2FF73C4F200039A4294
:1013A00015DCB2F1804F29D040F20043C4F20003B3
:1013B00022E040F2FF33C4F201039A4212DC41F60C
:1013C0000003C4F200039A4218D0002312E040F652
:1013D0000003C4F200039A4210D040F60043C4F266
:1013E000000309E044F20003C4F201039A4205D06D
:1013F00040F20043C4F201039A4204D149682CF040
:101400008003194391600121002280F83D1080F88B
:101410003C20104610BD0000002804BF012070478A
:1014200010B5044690F83D0028B9002084F83C002F
:10143000204600F01FF8022084F83D002068211D9E
:1014400001F014F9012084F8460084F83E0084F885
:101450003F0084F8400084F8410084F8420084F89A
:10146000430084F8440084F8450084F83D000020DF
:1014700010BD000081B0006841F20041C4F20001DB
:10148000884201D001B070470020009043F6400030
:10149000C4F20200016841F020010160006800F020
:1014A00020000090009801B07047000090F83D10B7
:1014B00001291CBF01207047022180F83D100068FF
:1014C00041F2FF72C168C4F20002904241F0010192
:1014D000C1600DDC40F2FF71C4F20001884215DCEE
:1014E000B0F1804F29D040F20041C4F2000122E067
:1014F00040F2FF31C4F20101884212DC41F60001E2
:10150000C4F20001884218D0002112E040F6000128
:10151000C4F20001884210D040F60041C4F200013C
:1015200009E044F20001C4F20101884205D040F212
:101530000041C4F20101884206D1816801F007012F
:10154000062904BF00207047016841F001010160D5
:101550000020704770470000B0B504460068C168BD
:10156000026902EA0105A9071ED4680732D42807D8
:1015700048D4E8065DD4E80774D128067CD4680610
:1015800006D520686FF040010161204600F08EF81A
:10159000A80658BFB0BD21686FF0200220460A613E
:1015A000BDE8B040FFF7DCBE6FF002010161012130
:1015B00021778069800703D02046FFF7CBFF05E045
:1015C000204600F065F8204600F064F800202077FF
:1015D0006807CCD520686FF00401016102212177F2
:1015E000806910F4407F03D02046FFF7B3FF05E089
:1015F000204600F04DF8204600F04CF800202077FF
:101600002807B6D520686FF0080101610421217711
:10161000C069800703D02046FFF79CFF05E0204605
:1016200000F036F8204600F035F800202077E80674
:10163000A1D520686FF01001016108212177C069F0
:1016400010F4407F03D02046FFF784FF05E02046DA
:1016500000F01EF8204600F01DF800202077E80773
:101660003FF48BAF20686FF001010161204600F06C
:1016700013F828067FF583AF20686FF080010161C1
:101680002046FFF76BFE68067FF582AF79E7000022
:101690007047000070470000006840F60001C4F287
:1016A0000001884208BFFFF789BA70477047000001
:1016B0007047000010B504460068416994F8412065
:1016C000212A56D111F0800153D000BF50E8050FF8
:1016D000216820F0800041E80502E2B1206850E86E
:1016E000050F216820F0800041E805029AB12068CA
:1016F00050E8050F216820F0800041E8050252B152
:10170000206850E8050F216820F0800041E80502BC
:101710000AB12068DAE7A06B002818BFFEF71AFFAD
:10172000206850E8030F216820F0C00041E8030260
:10173000DAB1206850E8030F216820F0C00041E8CA
:10174000030292B1206850E8030F216820F0C00026
:1017500041E803024AB1206850E8030F216820F0F5
:10176000C00041E80302002ADAD1202084F84100B9
:101770002068416994F84220222A40F0A78011F0A5
:10178000400100F0A38000BF50E8050F216820F061
:10179000400041E80502E2B1206850E8050F2168E9
:1017A00020F0400041E805029AB1206850E8050F9A
:1017B000216820F0400041E8050252B1206850E85D
:1017C000050F216820F0400041E805020AB12068B9
:1017D000DAE7E06B002818BFFEF7BCFE206850E88F
:1017E000030F216820F4907041E80302BAB3206827
:1017F00050E8030F216820F4907041E8030272B3AF
:10180000206850E8030F216820F4907041E803023B
:101810002AB3206850E8030F216820F4907041E853
:101820000302002ADAD11AE0206850E8050F216887
:1018300020F0010041E80502DAB1206850E8050F08
:10184000216820F0010041E8050292B1206850E8CB
:10185000050F216820F0010041E805024AB1206827
:1018600050E8050F216820F0010041E80502002A38
:10187000DAD1206B012824D1206850E8030F2168B9
:1018800020F0100041E80302DAB1206850E8030FAD
:10189000216820F0100041E8030292B1206850E86E
:1018A000030F216820F0100041E803024AB12068CC
:1018B00050E8030F216820F0100041E80302002ADD
:1018C000DAD1202084F8420000202063002010BDDF
:1018D00070470000B0B582B0056804462968EA6820
:1018E000686901F02F03202B02F0200306D12BB1F1
:1018F000204602B0BDE8B04001F0D2B85FEA017CFA
:101900001EBF00F0010E02F4907010EB0E002ED1FD
:10191000236B02EA0100C10617D5012B15D1002067
:1019200001902868019068680190019868694006F4
:1019300027D4A08DE18DE28D002A1CBF411A5FEAF9
:10194000014040F0D08102B0B0BD010600F1CF806F
:101950004006F8D5E868202120F04000E8602046E5
:1019600084F8411002B0BDE8B04000F01DBCC807CB
:1019700018BF12F4807040F0CD80480700F1D0808D
:10198000D5E0E06B01684A6893B2002BDBD0A18DF3
:101990008B42D8D2E285C069B0F5807F00F0A0808C
:1019A00055E8030F216820F4807041E80302F2B18A
:1019B000206850E8030F216820F4807041E803029A
:1019C000AAB1206850E8030F216820F4807041E834
:1019D000030262B1206850E8030F216820F4807090
:1019E00041E803021AB1206850E8030FDAE72068E3
:1019F00050E8050F216820F0010041E80502BAB364
:101A0000206850E8050F216820F0010041E8050238
:101A100072B3206850E8050F216820F0010041E80A
:101A200005022AB3206850E8050F216820F0010064
:101A300041E80502002ADAD11AE0206850E8050FD3
:101A4000216820F0400041E80502DAB1206850E842
:101A5000050F216820F0400041E8050292B120689E
:101A600050E8050F216820F0400041E805024AB126
:101A7000206850E8050F216820F0400041E8050289
:101A8000002ADAD1202084F8420000202063206858
:101A900050E8030F216820F0100041E80302DAB19A
:101AA000206850E8030F216820F0100041E803028D
:101AB00092B1206850E8030F216820F0100041E83F
:101AC00003024AB1206850E8030F216820F010009B
:101AD00041E80302002ADAD1E06BFEF73BFDA18D5D
:101AE00002206063E08D081A81B2204675E194F807
:101AF000410021287FF427AFA068B0F5805F03D1B3
:101B00002069002800F08681206A411C216200784B
:101B1000686086E1606C40F001006064480706D5AB
:101B2000BEF1000F03D0606C40F0020060648807D3
:101B300006D5BEF1000F03D0606C40F00400606475
:101B4000BCF1000F06D55EEA030003D0606C40F0E4
:101B500008006064606C00283FF4F5AE02EA010002
:101B6000800603D5204600F09BFF25686869616CFC
:101B700000F0400001F00801401800F0AD8055E889
:101B8000030F00BF216820F4907041E80302D2B334
:101B9000206850E8030F216820F4907041E80302A8
:101BA0008AB3206850E8030F216820F4907041E860
:101BB000030242B3206850E8030F216820F49070BC
:101BC00041E80302FAB1206850E8030FDAE700BFEA
:101BD000206850E8050F216820F0010041E8050267
:101BE000DAB1206850E8050F216820F0010041E8D3
:101BF000050292B1206850E8050F216820F001002D
:101C000041E805024AB1206850E8050F216820F03C
:101C1000010041E80502002ADAD1206B012824D115
:101C2000206850E8030F216820F0100041E803020B
:101C3000DAB1206850E8030F216820F0100041E875
:101C4000030292B1206850E8030F216820F01000D1
:101C500041E803024AB1206850E8030F216820F0F0
:101C6000100041E80302002ADAD1202084F8420063
:101C70000020206320684169490640F1C58050E892
:101C8000050F216820F0400041E80502002A00F01D
:101C9000A980206850E8050F216820F0400041E845
:101CA0000502002A00F09E80206850E8050F216898
:101CB00020F0400041E80502002A00F093802068EF
:101CC00050E8050F216820F0400041E80502002A95
:101CD00000F088802068D2E72046FFF7F9FD002059
:101CE000606402B0B0BD55E8030F226820F4907024
:101CF00042E80303CBB3206850E8030F226820F4C6
:101D0000907042E8030383B3206850E8030F226811
:101D100020F4907042E803033BB3206850E8030FBF
:101D2000226820F4907042E80303F3B1206850E881
:101D3000030FDAE7206850E8050F226820F0010061
:101D400042E80503DBB1206850E8050F226820F067
:101D5000010042E8050393B1206850E8050F2268AE
:101D600020F0010042E805034BB1206850E8050F60
:101D7000226820F0010042E80503002BDAD1202080
:101D800084F8420000202063206850E8030F226896
:101D900020F0100042E80303DBB1206850E8030F95
:101DA000226820F0100042E8030393B1206850E855
:101DB000030F226820F0100042E803034BB12068B3
:101DC00050E8030F226820F0100042E80303002BC4
:101DD000DAD1022289B22046626302B0BDE8B04087
:101DE000FFF766BCE06B78B142F2A171C0F600016A
:101DF0000165FEF7F1FB00283FF4A5ADE06B016D36
:101E000002B0BDE8B0400847204602B0BDE8B0408F
:101E1000FFF75EBD206A30F8021B6FF35F21696037
:101E20002062E08C01380104E0847FF48CADE86826
:101E300020F08000E860E86840F04000E86002B010
:101E4000B0BD0000002804BF0120704710B5044653
:101E500090F8410028B9002084F84000204600F0A6
:101E600021F8242084F841002068C16821F4005141
:101E7000C160204600F092FE2068016921F4904183
:101E80000161416921F02A014161C16841F40051B9
:101E9000C16000202021606484F8411084F8421061
:101EA000606310BD70B586B00446016841F2000061
:101EB000C4F20100814201D006B070BD002643F695
:101EC00030010196C4F202014A6900F5704042F007
:101ED00010024A614A6902F010020192019A0196C9
:101EE0000A6842F001020A60096801F001010191EB
:101EF00001994FF4C06101910221CDE9021603213D
:101F000004910721059101A9FEF766FD40F2DC0569
:101F100046F24040C2F20005C4F202004FF00061F8
:101F20004FF4806285E843002846C5E90362C5E9AD
:101F30000566C5E907666E62FEF73EFC002818BF1D
:101F4000FEF704FB252005210022E563AC63FEF7C4
:101F5000E9FE2520FEF7D6FE06B070BD70B582B052
:101F6000044690F84200202809D113460A46002969
:101F70004FF0010018BF002B04D102B070BD022049
:101F800002B070BD002622202663A262A38566648B
:101F900084F842002168E06B42F6291C42F6892E43
:101FA00042F2AD75C0F6000CC0F6000EC0F600059A
:101FB0000431C0E90FCEC0E91356FEF7A1FC01962B
:101FC000206801680191416801910199216929B353
:101FD00050E8030F216840F4807041E80302EAB141
:101FE000206850E8030F216840F4807041E8030244
:101FF000A2B1206850E8030F216840F4807041E8E6
:1020000003025AB1206850E8030F216840F4807041
:1020100041E8030212B12068DAE700BF206850E807
:10202000050F216840F0010041E80502BAB32068BD
:1020300050E8050F216840F0010041E8050272B345
:10204000206850E8050F216840F0010041E80502D2
:102050002AB3206850E8050F216840F0010041E8EC
:102060000502002ADAD11AE0206850E8050F21683D
:1020700040F0400041E80502DAB1206850E8050F61
:10208000216840F0400041E8050292B1206850E824
:10209000050F216840F0400041E805024AB1206880
:1020A00050E8050F216840F0400041E80502002A91
:1020B000DAD1002002B070BD704700007047000008
:1020C0002DE9F04381B0044690F84100202844D126
:1020D000894600294FF0010063D01646002A60D0DF
:1020E0004FF0000821201D46C4F8448084F84100C8
:1020F000FEF75EFDA684E684A1680646B1F5805F22
:1021000005D12069002814BF4846C8468146E08CA6
:1021100038B320686F1C0BE0B9F1000F16D019F826
:10212000011B4160E18C0139E184E18CD1B100BF38
:1021300001680906F0D4002FFAD0FEF739FD2DB35F
:10214000801BA84222D82068C168F1E738F8021B3A
:102150004FF000096FF35F21E3E7022001B0BDE813
:10216000F08320680168490617D46F1C03E000BFA4
:102170000168490611D4002FFAD0FEF719FD2DB1E0
:10218000801BA84202D82068C168F1E7202084F8AB
:102190004100032001B0BDE8F083202084F8410015
:1021A000002001B0BDE8F08370470000FEE70000AA
:1021B00080B582B00020019043F63000C4F20200E6
:1021C0000168002241F4800101600068052100F4EB
:1021D0008000019001983A20FEF7A4FD3A2002B059
:1021E000BDE88040FEF78EBD80B545F21422C0F6F2
:1021F00000020120002100F0CFFD40F21421C2F2C4
:102200000001086042F2E54045F2F012C0F600001D
:10221000C0F60002002100F015FE40F2D801C2F223
:102220000001086042F2ED4045F22422C0F60000B1
:10223000C0F60002002100F005FE40F21821C2F2B3
:102240000001086042F2095045F24822C0F6000041
:10225000C0F60002002100F0F5FD40F21C21C2F2A0
:102260000001086042F2115045F26C22C0F60000F5
:10227000C0F60002002100F0E5FD40F22021C2F28C
:102280000001086042F2195045F29022C0F60000A9
:10229000C0F60002002100F0D5FD40F22421C2F278
:1022A0000001086042F2215045F2B422C0F600005D
:1022B000C0F60002002100F0C5FD40F22821C2F264
:1022C0000001086080BD00002DE9F04186B00026C5
:1022D00043F63000CDE904660096C4F202000168BE
:1022E000002441F0100101600168C4F2020401F011
:1022F00010010091009900960168002241F004014C
:10230000016001684FF4817801F0040100910099A7
:102310000096016841F080010160016801F08001D0
:10232000009100990096016841F001010160006888
:102330004FF4817100F00100009000982046FEF7F4
:1023400031FC0C2001904FF4041001AD02900127E4
:1023500004F5805029460397FEF73EFB4FF48810A2
:10236000029002200390204629460197FEF734FB95
:1023700020462946CDE90187CDE90366FEF72CFB0F
:10238000062005210022FEF7CDFC0620FEF7BAFC50
:10239000082005210022FEF7C5FC0820FEF7B2FC4C
:1023A000092005210022FEF7BDFC0920FEF7AAFC4A
:1023B00006B0BDE8F081000080B582B040F2841024
:1023C00041F200420021C2F20000C4F2000242F2D7
:1023D000CF034FF0310CCDE90011C0E90023C0E973
:1023E000021C8161FFF718F8002818BFFEF7AEF84D
:1023F00040F28410C2F200006946FEF7B3FF0028E5
:1024000018BFFEF7A3F802B080BD000080B540F20F
:10241000CC1041F20001C2F20000C4F2010100231D
:102420004FF00C0C4FF4E13280E80E00C0E90333AA
:10243000C0E905C3C361FFF705FD002808BF80BDE3
:10244000BDE88040FEF782B8FEE70000FEE700002E
:10245000EFF30980BFF36F8F154B1A681EF0100F52
:1024600008BF20ED108A20E9F04F10602DE9090027
:102470004FF0500080F31188BFF34F8FBFF36F8F81
:1024800001F024FE4FF0000080F31188BDE8090040
:1024900019680868B0E8F04F1EF0100F08BFB0ECE4
:1024A000108A80F30988BFF36F8F704700BF00BFA9
:1024B00020030020000000000000000000000000D9
:1024C000074B19680868B0E8F04F80F30988BFF33C
:1024D0006F8F4FF0000080F31188704700BF00BF7E
:1024E00020030020012000F013FCFBE70024C4F2CD
:1024F000020400BF4FF4FA7000F00AFC20460221EB
:10250000FEF748FBF6E70000012000F001FCFBE7C6
:10251000012000F0FDFBFBE7012000F0F9FBFBE7E9
:1025200040F2CC14C2F20004206840F27405C16885
:10253000C2F2000541F01001C16020462946642224
:10254000FFF70CFD40F2142640F29877C2F2000625
:10255000C2F2000703E000BF052000F0D9FB30689D
:102560004FF4967102F010FA0128F5D13A7820461E
:1025700029466423FFF7A4FD204629466422FFF77D
:10258000EDFCE9E780B54EF21000CEF200000068E5
:1025900002F08CFB012808BF80BDBDE8804001F03F
:1025A000B7BE0000B0B592B0002443F64000CDE9BC
:1025B0000A44CDE908440594CDE90344CDE901443A
:1025C0000094C4F202000168022541F080510160CC
:1025D000006800F080500090009847F200000094DE
:1025E000C4F20000016841F4804101600068A82144
:1025F00000F4804000900098012006904FF4803055
:1026000007904FF480000D9004200E90119006A8C2
:102610000C95CDE90F15FEF7EFFC10B172B600BFB7
:10262000FEE70F20CDE901054FF4A05004904FF4D0
:102630008050059001A805210394FEF7AFFB10B16F
:1026400072B600BFFEE712B0B0BD00004EF6885073
:10265000CEF20000016841F4700101607047000093
:1026600040F23C10C2F20000FEF776BF10B540F613
:10267000FF3E0368C4F2000E40F2004C7045C4F205
:10268000010C0FDCB0F1804F19D040F20042C4F2CF
:102690000002904213D040F60002C4F200029042C1
:1026A0000DD010E040F60042C4F20002904206D085
:1026B000604504D00022C4F20102904203D14A686E
:1026C00023F07003134341F6FF72C4F200029042FC
:1026D0000DDC70451FDCB0F1804F41D040F200426C
:1026E000C4F2000290423BD040F6000221E043F6E3
:1026F000FF72C4F20102904220DC42F20002C4F2F6
:10270000000290422CD00022C4F20102904227D055
:10271000604525D028E040F60042C4F20002904215
:102720001ED041F60002C4F20002904218D041F6D9
:102730000042C4F20002904212D015E044F20002BE
:10274000C4F2010290420BD044F60002C4F201022E
:10275000904205D044F20042C4F20102904203D1FB
:10276000CA6823F44073134323F080024B69D1F805
:1027700000E08C681A430260C46240F48062C0F8D2
:1027800028E0624504BF09690163012141610169D3
:10279000C90708BF10BD016921F00101016110BD29
:1027A000806B0021C185C184FFF792B8806B0168FE
:1027B0004A6990F84130212B2DD112F080022AD0A5
:1027C0000022C28451E8031F026821F0C00142E8E0
:1027D0000313E3B1016851E8031F026821F0C0014F
:1027E00042E803139BB1016851E8031F026821F01E
:1027F000C00142E8031353B1016851E8031F0268A6
:1028000021F0C00142E803130BB10168DAE720218F
:1028100080F8411001684A6990F84230222B7DD13E
:1028200012F040027AD00022C28500BF51E8031F97
:10283000026821F4907142E80313C3B3016851E8C0
:10284000031F026821F4907142E803137BB301680F
:1028500051E8031F026821F4907142E8031333B377
:10286000016851E8031F026821F4907142E80313E4
:10287000EBB10168DAE700BF016851E8051F0268A3
:1028800021F0010142E80513DBB1016851E8051FA1
:10289000026821F0010142E8051393B1016851E893
:1028A000051F026821F0010142E805134BB10168E0
:1028B00051E8051F026821F0010142E80513002BD1
:1028C000DAD1016B012924D1016851E8031F0268A4
:1028D00021F0100142E80313DBB1016851E8031F46
:1028E000026821F0100142E8031393B1016851E836
:1028F000031F026821F0100142E803134BB1016885
:1029000051E8031F026821F0100142E80313002B75
:10291000DAD1202180F8421000210163416C41F09E
:1029200010014164FEF7D4BF0168806B0968C905D6
:1029300000F19F800021C185016851E8031F0268F2
:1029400021F4807142E80313E3B1016851E8031FE9
:10295000026821F4807142E803139BB1016851E8D9
:10296000031F026821F4807142E8031353B1016828
:1029700051E8031F026821F4807142E80313002B21
:10298000DAD100BF016851E8051F026821F001019A
:1029900042E80513BBB3016851E8051F026821F046
:1029A000010142E8051373B3016851E8051F02688D
:1029B00021F0010142E805132BB3016851E8051F1E
:1029C000026821F0010142E80513002BDAD11AE078
:1029D000016851E8051F026821F0400142E8051333
:1029E000DBB1016851E8051F026821F0400142E8AF
:1029F000051393B1016851E8051F026821F04001F9
:102A000042E805134BB1016851E8051F026821F047
:102A1000400142E80513002BDAD1202180F8421052
:102A2000016B012925D100BF016851E8031F02682D
:102A300021F0100142E80313DBB1016851E8031FE4
:102A4000026821F0100142E8031393B1016851E8D4
:102A5000031F026821F0100142E803134BB1016823
:102A600051E8031F026821F0100142E80313002B14
:102A7000DAD100214163016B012918BFFFF71CBBAC
:102A8000818DFEF715BE0000806B01214163016B53
:102A9000012918BFFFF712BB818D4908FEF708BE58
:102AA00081B090F84210222920D18368B3F5805F6D
:102AB00008D10169002956D000F128010A6803688D
:102AC0005B680AE0014651F8282F13B90369002B0F
:102AD000F5D003685B6803F07F0313700A68013266
:102AE0000A60C18D01390A04C18501D001B0704767
:102AF0000168CA6822F02002CA60CA6822F48072A3
:102B0000CA604A6922F001024A61202280F842200C
:102B100000224263036B012B2ED1026351E8031F95
:102B2000026821F0100142E8031343B3016851E841
:102B3000031F026821F0100142E80313FBB1016892
:102B400051E8031F026821F0100142E80313B3B1FA
:102B5000016851E8031F026821F0100142E80313E5
:102B60006BB10168DAE70168826A49686FF35F2137
:102B700022F8021B8262B4E701B0FFF79DBA016838
:102B80000A68D20606D5002200920A6800924968B7
:102B900000910099818D01B0FEF78ABD10B5044601
:102BA0000068D4E902C22369016921F4405111434C
:102BB0000161626943EA0C01E3691143C268194388
:102BC00049F20C639A431143C1604169A26921F43F
:102BD000407141F20043114340F48062C4F20103AA
:102BE0009A42416102D1FEF7BDF901E0FEF7A6F974
:102BF000E16963681922B1F5004FA0FB02011CD105
:102C00005A00DB0FFDF730FB48F21F51C5F2EB1104
:102C1000A0FB01235A096FF0630302FB0300322378
:102C200003EBC000A0FB01014FF4F87000EA1110A3
:102C300000EB0210C1F342111AE09A009B0FFDF75E
:102C400013FB48F21F51C5F2EB11A0FB01235A09F7
:102C50006FF0630302FB0300322303EB0010A0FBC1
:102C60000101F02000EA511000EB0210C1F3431102
:102C700022680843906010BD80B582B040F2CC104D
:102C8000C2F200000021006801910268D20620D53E
:102C900000910168009140680090009840F2CC10CB
:102CA000C2F20000FEF706FD40F2DC00C2F20000B6
:102CB000006840F298724068C2F20002C0F16401FC
:102CC00040F21420C2F200000068117001A901F066
:102CD00039FD40F2CC10C2F20000FEF7FBFD02B05D
:102CE00080BD0000FEE70000FDF776FFFFF75AFC0D
:102CF000FFF7EAFAFFF75CFAFFF788FBFFF75CFBE8
:102D000000F016F8FFF770FA00F026F8FEE7000072
:102D1000EFF3058100291CBF6FF005007047002804
:102D200004BF0020704780B501F04AF8002080BD44
:102D3000EFF3058000281CBF6FF00500704740F2DC
:102D40007000C2F200000168002911BF4FF0FF308F
:102D5000012101600020704710B5EFF3058018B124
:102D60006FF00504204610BD40F27000C2F2000072
:102D7000016801290BD14EF61F51CEF2000100244B
:102D80000C700221016001F015F9204610BD4FF0D2
:102D9000FF34204610BD000070B582B00E4686425A
:102DA0004FF00005EFF3058148D8002846D00029F0
:102DB00044D1144692B1D4E9022162B14F291FD9FE
:102DC000A36801282BD103250120002100220095B2
:102DD00001F044FB09E009B100252FE001280BD1E7
:102DE00001200021032201F0F5FA0546002E18BF4C
:102DF000002D07D1CDB920E0314601F0A1FA12E053
:102E000000251BE0284600210022002301F094FB4E
:102E100001280AD0284600F05BFF00250EE031466D
:102E20001A4601F0AFFA05463DB1002C14BF2168E7
:102E30000021284600F012FF00E00025284602B0DD
:102E400070BD0000F0B585B08C46002300280493C7
:102E5000EFF3058142D0002940D13AB19469002CAA
:102E600008BF1824382C10D9002337E00021802314
:102E7000182404AF9AB263460094019701F0AAFEA9
:102E800001280CBF049B002328E01179C9071AD13F
:102E90005669D2E902574FEA960E1168002E734622
:102EA00008BF80238DB15C2F12D34FF00003AEB169
:102EB00012699AB1CDE9004272466346029501F06B
:102EC000B9FE03460AE0002308E01FB1002305E035
:102ED000002303E01269002ACBD00023184605B076
:102EE000F0BD0000F0B581B00D4644F66C3140F203
:102EF0002036C2F20001C2F200060F6831680446B3
:102F0000081D00F02BFD601C0BD155B13068011D70
:102F100044F64430C2F2000001B0BDE8F04000F0D9
:102F20008BBD3068E41944600BD340F23030C2F2FC
:102F3000000000683168043101B0BDE8F04000F0E5
:102F40004BBD40F22830C2F2000000683168043105
:102F500000F042FD44F6D020C2F2000001688C422D
:102F600038BF046001B0F0BD2DE9F047044600F021
:102F70007BFD44F2A430C2F20000016840F2203729
:102F800001310160C2F20007396844F6383A40F274
:102F90003836C2F2000AC2F2000651B1DAF8000077
:102FA00000283ED13868E16AC06A884298BF3C6018
:102FB00037E03C600068012833D10025701900F02B
:102FC000FBFC1435B5F58C6FF8D144F69C28C2F2A1
:102FD0000008404600F0F0FC44F6B029C2F20009B7
:102FE000484600F0E9FC44F6E420C2F2000000F09C
:102FF000E3FC44F65830C2F2000000F0DDFC44F679
:103000004430C2F2000000F0D7FC40F22830C2F297
:103010000000C0F8008040F23030C2F20000C0F87A
:10302000009044F2B030C2F200000168013101604A
:10303000616444F2B431C2F20001E06A0A6890426D
:1030400088BF086000EB800006EB8000211D00F0C7
:10305000F3FC00F02DFDDAF8000088B13868E16A71
:10306000C06A884228BFBDE8F0874EF60450CEF211
:1030700000004FF080510160BFF34F8FBFF36F8F9F
:10308000BDE8F08770B582B000F0EEFC44F6703613
:10309000C2F20006306850BB44F67024C2F200044D
:1030A000204600F089FC44F68425C2F2000528463B
:1030B00000F082FC40F22430C2F20000046040F2D2
:1030C0003430C2F2000040F22C2240F2CC230560E2
:1030D0000025C2F20002C2F200030A20102100956E
:1030E00001F0BCF9306010B103A100F0B7FD02B0EF
:1030F000BDE8704000F0DCBC546D7251000000006F
:1031000044F2A83540F2383A4EF6045844F658379F
:1031100044F2A436C2F20005C2F2000ACEF2000860
:103120004FF08059C2F20007C2F2000603E000BF70
:10313000204600F0D5FC2868C8B100F095FCF8687E
:10314000C468201D00F00AFC30680138306028682F
:103150000138286000F0ACFC94F859000228EAD04D
:103160000128E5D070B9206B00F0BAFCE0E7DAF88E
:1031700000000228DFD3C8F80090BFF34F8FBFF3E1
:103180006F8FD8E74FF0500080F31188BFF36F8F37
:10319000BFF34F8FFEE700002DE9F0470A9C8246FF
:1031A000206B16460F46DDE908599100A522984686
:1031B000FDF717F9206B002F00EB8600A0F104004B
:1031C00020F0070654D0387884F834003878002886
:1031D0004AD0787884F835007878002844D0B878D8
:1031E00084F83600B87800283ED0F87884F83700A4
:1031F000F878C8B3387984F838003879A0B378798A
:1032000084F83900787978B3B87984F83A00B879D5
:1032100050B3F87984F83B00F87928B3387A84F809
:103220003C00387A00B3787A84F83D00787AD8B1D7
:10323000B87A84F83E00B87AB0B1F87A84F83F00E2
:10324000F87A88B1387B84F84000387B60B1787BAD
:1032500084F84100787B38B1B87B84F84200B87BB1
:1032600010B1F87B84F84300002084F8430002E0AA
:10327000002084F834000027201D372D28BF372573
:10328000E562C4E9135700F0A3FB04F1180000F055
:103290009FFBC5F13800A06130465146424624618B
:1032A0006462676584F8587000F044FBB9F1000F60
:1032B000206018BFC9F80040BDE8F08708480068E2
:1032C000006880F308884FF0000080F3148862B62D
:1032D00061B6BFF34F8FBFF36F8F00DF00BF00BF3A
:1032E00008ED00E02DE9F04F85B0824601F0F2FCD8
:1032F00040F21C39C2F20009D9F800100546884294
:1033000043D240F22434C2F200042068016800294C
:103310003DD044F6703BC2F2000B08E078602068B4
:1033200031463F6100F058FB2068016879B3C068FE
:10333000C768D0F800803E1D304600F00FFB396AA8
:103340003846884797F828004007EDD5B8694044CB
:103350004045E3D8DBF8000070B10020CDE901085A
:10336000039701F0A3FCDBF8000001A90022002371
:1033700001F0E2F80028D7D14FF0500080F3118817
:10338000BFF36F8FBFF34F8FFEE7002007E040F2DF
:103390003431C2F200010A68086001202260CAF8D4
:1033A00000002846C9F8005005B0BDE8F08F0000C5
:1033B00081B00020009040F20C00C2F200000068D2
:1033C0004FF0500181F31188BFF36F8FBFF34F8F20
:1033D000013007D0FEE700BF009830B9009820B94F
:1033E000009810B900980028F6D001B0704700008E
:1033F0008AB040F2243A40F2343944F67038C2F2CE
:10340000000A02ACC2F20009C2F2000801AE00BF1D
:10341000DAF8000007681FB1C068D0F800B001E01A
:103420004FF0000B00F04AFE2046FFF75BFF0299C9
:1034300011B101F0E9FD6DE00546AFB15D4513D373
:1034400001F0E2FDDAF80000C068C76807F104097E
:10345000484600F083FA97F82800410707D400F0A7
:10346000FE0087F8280049E05FB100220FE0B8694C
:103470003F6100EB0B01A94279601DD9DAF8000029
:1034800023E0D9F800000068B0FA80F04209D8F8CB
:103490000000ABEB050100F06FFC01F0B5FDC8BB0F
:1034A0004EF60450CEF200004FF080510160BFF3A1
:1034B0004F8FBFF36F8F2DE0A5EB0B01814208D238
:1034C00040F23430C2F200000068494600F084FA4D
:1034D00014E0D8F80000002800F0B1800020CDE909
:1034E000060B089701F0E2FBD8F8000006A90022BD
:1034F000002301F021F8002800F0A180396A384645
:10350000884740F23439C2F2000903E0D9F80000DC
:1035100000F062FAD8F800002146002201F072F9AA
:1035200000283FF475AF0298B0F1FF3F06DCDDE9FB
:1035300003200599904702980028EBD4049F7869EE
:1035400010B1381D00F00AFA3046FFF7CBFE0299A1
:103550000929DFD8DFE801F0050505393C520505EA
:10356000393C97F82810039ABD6941F0010187F8AA
:103570002810AB18394641F8043F83423F6104D913
:10358000904236D2934203D233E0801AA842BDD390
:10359000396A3846884797F828004007BAD5D8F8DE
:1035A0000000C0B30398B969089708440021CDE929
:1035B000061001F07BFBD8F8000006A900220023CA
:1035C00000F0BAFF0028A5D125E097F828001DE0FB
:1035D00097F8281041F00102039987F82820B96173
:1035E00019B30A18394641F8042F82423F617FF629
:1035F0008DAFDAF8000000F0EFF98BE797F82800BC
:10360000810703D4384600F06BFA83E700F0FE0030
:1036100087F828007EE74FF0500080F31188BFF351
:103620006F8FBFF34F8F00BFFEE74FF0500080F366
:103630001188BFF36F8FBFF34F8F00BFFEE74FF0CE
:10364000500080F31188BFF36F8FBFF34F8F00BF1F
:10365000FEE70000F0B581B0044600F005FA94F9E9
:103660004560012E0FDB04F1240500BF286850B12E
:10367000284601F081FC002818BF00F003FC70B25E
:10368000013E0128F2DCFF2684F8456000F010FAC4
:1036900000F0EAF994F94470012F0EDB04F11005F3
:1036A000286850B1284601F067FC002818BF00F0D8
:1036B000E9FB78B2013F0128F2DC84F8446001B0F4
:1036C000BDE8F04000F0F4B92DE9F041044600F007
:1036D000F5FC40F22C30C2F20000016841B144F622
:1036E0009821C2F200010978012936D0002136E084
:1036F00040F29971C2F20001CB1D23F0070311F0D3
:103700000702A1EB030718BF194644F63C33C2F287
:1037100000030026C3E900164FF47053002A18BFB7
:1037200007F57053CA18083A22F007020260C2E98E
:1037300000660368521AC1E9003244F6CC21C2F295
:1037400000010A6044F6C421C2F200010A6044F696
:103750009821C2F2000101220A704FF00041002CB2
:103760004FF0000500F0C980214040F0C68014F001
:10377000070104F108051EBF691A01F108055FEA97
:1037800045712ED144F6C42EC2F2000EDEF80010B0
:103790006A1E8A4259D244F63C33C2F200031968C9
:1037A000884658F8044FAC4238D20A681AB30E461D
:1037B0005468AC4224D2176817B37C68AC4224D258
:1037C0003B6813B35C68AC4224D21E6816B37468BD
:1037D000AC4202D23268002AEAD106F1040831462E
:1037E0001CE04FF0500080F31188BFF36F8FBFF3E0
:1037F0004F8F00BFFEE744F63C33C2F200030DE0FA
:1038000002F104081146334608E007F1040839467E
:10381000134603E003F1040819463B46026891424F
:1038200013D0D3F800C00E68621B112A1E603DD36E
:103830004B195C070BD04FF0500080F31188BFF399
:103840006F8FBFF34F8F00BFFEE7002555E044F6B2
:103850003C34C2F200045A60C8F8005022689A4210
:103860000AD214689C420AD222689A4204D214688E
:1038700015469C42F2D303E02546144600E0154667
:103880006E685A68AF199F4202D132442B466A6073
:103890009E18A64206D10068844203D0D4E90040B5
:1038A000104458609D421C6018BF2B6044F6CC2029
:1038B000D8F80020DEF80030C2F2000004689A1A3E
:1038C000A242CEF8002038BF026044F69820C2F22F
:1038D00000000078D8F80020002818BF42F000420D
:1038E000C8F8002044F6D822C2F200021368002073
:1038F0000CF108050860581C106001F085FB680792
:1039000009D04FF0500080F31188BFF36F8FBFF3E1
:103910004F8F00BFFEE72846BDE8F08140F220301F
:10392000C2F20000016819B101680A6D01320A652E
:1039300000687047034643F2B130C0F600004FF014
:10394000807C21F0010103E903106FF0020043F8CD
:10395000240CA3F1440043F8202C7047D0E9013235
:1039600001699A60D1F804C082688445536008BF39
:103970004A600022026108680138086008687047E0
:1039800044F2B853C2F20003036044F2B830C2F20A
:1039900000000860802010607047000044F6142387
:1039A000C2F20003036044F21460C2F20000086037
:1039B0004FF48070106070474FF0FF31024642F8BC
:1039C000081F00214260C0E9032201607047000027
:1039D000002101617047000010B5D1F800C01CF152
:1039E000010213D000F1080462681368634511D81E
:1039F00053681C68644510D85A68146864450ED82A
:103A000054682368A6466345EED90AE00269D2F8F5
:103A100004E006E09646224603E09E4601E0964614
:103A20001A46C1F804E0CEF808108A6051600861B7
:103A300001680131016010BDD0F800C04368086121
:103A40009A684B608A609A68996051600CF1010134
:103A500001607047DFF80C00016841F470010160FB
:103A6000704700BF88ED00E04FF0500080F31188F0
:103A7000BFF36F8FBFF34F8F40F20C00C2F2000014
:103A800001684A1C026001B170474EF60450CEF244
:103A900000000068000608BF70474FF0500080F338
:103AA0001188BFF36F8FBFF34F8F00BFFEE7000099
:103AB00040F20C00C2F20000016839B10139016026
:103AC00018BF7047002080F3118870474FF05000F6
:103AD00080F31188BFF36F8FBFF34F8FFEE70000B5
:103AE000B0B5002808BFB0BD044644F69820C2F225
:103AF0000000007854F8041C002818BF4FF0004064
:103B000008420CD0A4F108052A6892B14FF0500089
:103B100080F31188BFF36F8FBFF34F8FFEE74FF035
:103B2000500080F31188BFF36F8FBFF34F8F00BF3A
:103B3000FEE721EA000044F8040C00F0BFFA44F666
:103B4000C420C2F2000054F8041C02680A44026057
:103B500044F63C30C2F200000368AB420AD2186857
:103B6000A8420AD20368AB4204D218681A46A84297
:103B7000F2D303E00246184600E01A465368D41810
:103B8000AC4202D11944154651606B1883420AD1E8
:103B900040F22C33C2F200031B68984203D0D0E9F4
:103BA000000319446960286044F6DC20AA4218BF6B
:103BB0001560C2F20000016801310160BDE8B0404B
:103BC00001F022BA4EF21000CEF200000021016096
:103BD000816040F20001C2F20001096844F6D3524C
:103BE000C1F26202A1FB02124FF0FF3101EB921110
:103BF0004160072101607047EFF30580102814D35E
:103C00004EF2F031CEF20001405C44F29931C2F242
:103C100000010978884208D24FF0500080F31188E3
:103C2000BFF36F8FBFF34F8FFEE74EF60C50CEF20F
:103C3000000044F29C310068C2F20001096800F4FF
:103C4000E060884298BF70474FF0500080F31188C1
:103C5000BFF36F8FBFF34F8FFEE7000044F6F82CE1
:103C6000C2F2000CDCF80020FAB1634653F8082FCA
:103C7000F2B1634653F8102FE2B1634653F8182FA0
:103C8000D2B1634653F8202FC2B1634653F8282FB0
:103C9000B2B1634653F8302FA2B1634653F8382FC0
:103CA000002A18BF704707220DE0002263460AE091
:103CB000012208E0022206E0032204E0042202E0DE
:103CC000052200E0062219600CEBC2014860704733
:103CD00078B344F6F821C2F200010B4653F8042FE2
:103CE0004FF0000C82422ED00B4653F80C2F82422C
:103CF0002BD00B4653F8142F824228D00B4653F892
:103D00001C2F824225D00B4653F8242F824222D00A
:103D10000B4653F82C2F82421FD00B4653F8342FFA
:103D200082421CD00B4653F83C2F82421CD1072202
:103D300016E04FF0500080F31188BFF36F8FBFF390
:103D40004F8F00BFFEE700220AE0012208E00222B6
:103D500006E0032204E0042202E0052200E006223D
:103D600041F832C0C3F800C090F84610002908BFDF
:103D7000FFF7B6BE7047000070B515460E46044604
:103D8000FFF772FE94F84400FF2804BF002084F877
:103D9000440094F84500FF2804BF002084F8450043
:103DA000FFF786FEA06B28B904F1240031462A46AD
:103DB00000F08CF82046BDE87040FFF74BBC0000D7
:103DC00070B5002843D0044644F2AC30C2F2000083
:103DD000016841B14FF0500080F31188BFF36F8F3D
:103DE000BFF34F8FFEE7016840F2203501310160DB
:103DF00044F66C30C2F20000C2F200050668286882
:103E00000430FFF7ABFD2868A419446009D340F2E1
:103E10003030C2F20000006829680431FFF7DCFD91
:103E200010E040F22830C2F2000000682968043136
:103E3000FFF7D2FD44F6D020C2F2000001688C42A8
:103E400038BF046001F0E0F8002818BF70BD4EF6DE
:103E50000450CEF200004FF080510160BFF34F8F4D
:103E6000BFF36F8F70BD000044F6D421C2F2000191
:103E70000968016044F66C31C2F2000109684160D2
:103E80007047000044F67830C2F200000121016062
:103E90007047000010B570B10C4640F22031C2F2FC
:103EA000000109681831FFF797FD20460121BDE8A0
:103EB0001040FFF717B84FF0500080F31188BFF3A0
:103EC0006F8FBFF34F8F00BFFEE70000B0B598B112
:103ED0000D4640F22031C2F2000109681446183143
:103EE000FFF7AAFD002C18BF4FF0FF3528462146EA
:103EF000BDE8B040FEF7F6BF4FF0500080F31188E8
:103F0000BFF36F8FBFF34F8FFEE7000070B528B38C
:103F1000026D04461AB3E06C884238BF0846012A95
:103F20001CD1E16A814208BF70BD40F22032C2F26A
:103F300000021268A2421CD0A269E062002A5CBFA3
:103F4000C0F13800A06140F23836606901EB8101B0
:103F5000C2F2000606EB8101884214D070BD4FF01A
:103F6000500080F31188BFF36F8FBFF34F8F00BFF6
:103F7000FEE74FF0500080F31188BFF36F8FBFF35F
:103F80004F8F00BFFEE7251D2846FFF7E7FC44F2F0
:103F9000B431C2F20001E06A0A68904288BF08604A
:103FA00000EB800006EB80002946BDE87040FFF77B
:103FB00043BD000010B588B00020CDE9050006A87B
:103FC00005A904AAFFF7DCFC0598002849D0069C47
:103FD000002C50D05C21049A079107995C2954D198
:103FE00007992063022084F8590007A80021CDE931
:103FF000001043F20110C0F600002EA1002302942D
:10400000FFF7CAF82046FEF7AFFF079844F6C8212D
:10401000C2F20001086010B301F092F8411C3ED0DA
:1040200001281CD14FF0500080F31188BFF36F8F2F
:10403000BFF34F8F44F6D020C2F200004FF0FF31A3
:10404000016044F63830C2F200000121016044F6FC
:104050006C30C2F200000021016000F099F808B055
:1040600010BD4FF0500080F31188BFF36F8FBFF386
:104070004F8F00BFFEE74FF0500080F31188BFF371
:104080006F8FBFF34F8F00BFFEE74FF0500080F3FC
:104090001188BFF36F8FBFF34F8F00BFFEE74FF064
:1040A000500080F31188BFF36F8FBFF34F8F00BFB5
:1040B000FEE700BF49444C450000000044F2AC302C
:1040C000C2F20000016801310160704744F2AC3077
:1040D000C2F20000006830B144F67830C2F200004D
:1040E00001210160704744F67830C2F200000021DF
:1040F00044F2B43C0160C2F2000CDCF8001040F263
:10410000383201EB8103C2F2000252F82300A8B159
:1041100001EB810002EB800353F8040F4268181D85
:1041200082421A6001D152681A60D06840F220328F
:10413000C2F200021060CCF80010704702EB83005E
:10414000A0F12803A1B15869D8B9012910D0186885
:10415000C8B902290CD053F8140CB0B9032907D000
:1041600053F8280C04390028A3F15003EAD0CFE714
:104170004FF0500080F31188BFF36F8FBFF34F8F64
:10418000FEE70139C4E70239C2E70339C0E700009E
:10419000B0B584B04EF20040CEF200004CF2702177
:1041A000C4F20F11D0F800294B1C9A4209D14FF0EC
:1041B000500080F31188BFF36F8FBFF34F8F00BFA4
:1041C000FEE7D0F800298A4209D14FF0500080F371
:1041D0001188BFF36F8FBFF34F8F00BFFEE70178E9
:1041E00044F299320291FF2101700178C2F200027B
:1041F0008DF807109DF8071001F05001117044F27E
:104200009C31C2F2000107220A609DF90720B2F139
:10421000FF3F66DC072200BF9DF807305B008DF88A
:1042200007309DF90730002B1ED59DF807305B0045
:104230008DF807309DF90730B3F1FF3F16DC9DF88C
:1042400007305B008DF807309DF90730B3F1FF3F71
:104250000EDC9DF80730043A5B008DF807309DF9BD
:104260000730002BD8D404E0013A02E0023A00E023
:10427000033A032A0A6034D14FF440720A6002996B
:104280000170D0F8201941F47001C0F82019D0F85D
:10429000201941F07041C0F82019FFF793FC40F25B
:1042A0000C04C2F2000400252560FFF7D3FB4EF694
:1042B0003470CEF20000016841F040410160FEF729
:1042C000FDFFFFF703FF039520684FF0500181F3D6
:1042D0001188BFF36F8FBFF34F8F013011D000BF34
:1042E000FEE74FF0500080F31188BFF36F8FBFF3EC
:1042F0004F8F00BFFEE7039830B9039820B90398A9
:1043000010B903980028F6D0002004B0B0BD00001A
:1043100080B54FF0500080F31188BFF36F8FBFF36B
:104320004F8F00F0DDFC30B14EF60450CEF20000AD
:104330004FF080510160002080F3118880BD0000A3
:1043400010B560B10C46814213D94FF0500080F394
:104350001188BFF36F8FBFF34F8F00BFFEE74FF0A1
:10436000500080F31188BFF36F8FBFF34F8F00BFF2
:10437000FEE70021022200F02DF8002818BF846318
:1043800010BD000010B582B058B10C46814212D960
:104390004FF0500080F31188BFF36F8FBFF34F8F42
:1043A000FEE74FF0500080F31188BFF36F8FBFF32B
:1043B0004F8F00BFFEE713464FF0020C0021002292
:1043C000CDF800C000F04AF8002818BF846302B09E
:1043D00010BD0000F0B581B0B0B306464843503080
:1043E00014460F46FFF770F9054650B30020002F22
:1043F00085F846001ABF05F1500028602D60C5E918
:104400000F67FFF731FB2868D5E90F12002702FB81
:104410000103013901FB0201AF63C5E90103FF207C
:10442000E96085F8440085F8450005F11000FFF7C4
:10443000C3FA05F12400FFF7BFFAFFF739FB85F84F
:104440004C40284601B0F0BD4FF0500080F3118879
:10445000BFF36F8FBFF34F8FFEE7000070B582B0E0
:1044600068B11C46ABB1F1B9EAB14FF0500080F32E
:104470001188BFF36F8FBFF34F8F00BFFEE74FF080
:10448000500080F31188BFF36F8FBFF34F8F00BFD1
:10449000FEE74FF0500080F31188BFF36F8FBFF33A
:1044A0004F8F00BFFEE751B14AB94FF0500080F383
:1044B0001188BFF36F8FBFF34F8F00BFFEE750230C
:1044C0000193019B502B2DD1019B069E01230029B6
:1044D00084F8463014BF22602460C4E90F01FFF75E
:1044E000C3FA2068D4E90F12002502FB0103013949
:1044F00001FB0201A563C4E90103FF20E16084F828
:10450000440084F8450004F11000FFF755FA04F167
:104510002400FFF751FAFFF7CBFA204684F84C60ED
:1045200002B070BD4FF0500080F31188BFF36F8F61
:10453000BFF34F8FFEE700002DE9F04F83B00292EA
:10454000B8B11D4617460E460446E1B1022D03D10F
:10455000E06B012840F0848000F0A8FBF8B9F7B1C7
:104560004FF0500080F31188BFF36F8FBFF34F8F70
:10457000FEE74FF0500080F31188BFF36F8FBFF359
:104580004F8F00BFFEE7206C0028DFD04FF05000B7
:1045900080F31188BFF36F8FBFF34F8FFEE7FFF7F4
:1045A00063FAA06B022D64D0E16B884261D304F101
:1045B000100801206F460DF108090CE02046FFF7B6
:1045C00049F800F021FDFFF74FFAA06BE16B88423C
:1045D0004FF000004DD30299002971D0C00702D0DE
:1045E0003846FFF741FCFFF763FAFFF767FDFFF777
:1045F0003BFA94F84400FF2804BF002084F84400EC
:1046000094F84500FF2804BF002084F84500FFF718
:104610004FFA3846494600F095FA002853D1FFF783
:1046200023FAD4F838A0D4F83CB0FFF741FADA45C1
:10463000C4D102994046FFF72DFC2046FFF70AF847
:1046400000F0E2FC0028BED14EF60450CEF200008D
:104650004FF080510160BFF34F8FBFF36F8FB2E710
:104660004FF0500080F31188BFF36F8FBFF34F8F6F
:10467000FEE7A76B226CD2B175B3E0683146FBF759
:104680006BFEE168206C2268091A9142E16003D256
:10469000A16840420844E060A81EB0FA80F04009DA
:1046A0003946002F18BF012108403F1A21E0206839
:1046B0000025F8B9A06800F0CBFBA560054619E01D
:1046C000FFF7F6F904E02046FEF7C4FF00F09CFC7B
:1046D000002003B0BDE8F08F60683146FBF73CFE78
:1046E000216CD4E9010208449042606001D3206843
:1046F00060600025781CA06354F8240F78B1204630
:1047000000F03AFCB8B14EF60450CEF200004FF083
:1047100080510160BFF34F8FBFF36F8F0BE055B136
:104720004EF60450CEF200004FF080510160BFF30E
:104730004F8FBFF36F8FFFF7BBF9012003B0BDE8C8
:10474000F08F000070B560B10546006C98B14FF075
:10475000500080F31188BFF36F8FBFF34F8F00BFFE
:10476000FEE74FF0500080F31188BFF36F8FBFF367
:104770004F8F00BFFEE728680C4658B3FFF73CFA9E
:10478000EFF311864FF0500080F31188BFF36F8F65
:10479000BFF34F8FA96BE86B814217D295F84500A4
:1047A0000131FF28A96322D155F8240F30B32846E0
:1047B00000F0E2FB0146002C4FF0010018BF002979
:1047C00019D00120206086F3118870BD002086F387
:1047D000118870BDA8680028D0D04FF0500080F339
:1047E0001188BFF36F8FBFF34F8F00BFFEE701301B
:1047F00085F84500012086F3118870BD012086F3FD
:10480000118870BD2DE9F04F83B0029288B1164631
:104810000D460446002946D000F048FA98B996B1F2
:104820004FF0500080F31188BFF36F8FBFF34F8FAD
:10483000FEE74FF0500080F31188BFF36F8FBFF396
:104840004F8F00BFFEE7FFF70FF9D4F838A0BAF199
:10485000000F34D0226C52B1D4E902308118E160EB
:10486000994224BF2168E1602846FBF775FDAAF153
:104870000100A06354F8100F70B1204600F07CFBDB
:1048800050B14EF60450CEF200004FF0805101605E
:10489000BFF34F8FBFF36F8F0126FFF709F9304643
:1048A00003B0BDE8F08F206C0028B5D04FF0500069
:1048B00080F31188BFF36F8FBFF34F8FFEE7002E99
:1048C0004FF00006E9D0EB46584604F12408FFF704
:1048D000CBFA0DF1080900BFFFF7EAF8FFF7EEFB8E
:1048E000FFF7C2F894F84400FF2808BF84F844603A
:1048F00094F84500FF2808BF84F84560FFF7D8F812
:104900005846494600F01EF960B12046FEF7A2FE67
:1049100000F07AFBFFF7A8F8A76BFFF7C9F81FBBF9
:104920002FE000BFFFF7A0F8A76BFFF7C1F82FB18A
:104930002046FEF78FFE00F067FB15E00299404627
:10494000FFF7A8FA2046FEF785FE00F05DFB58B998
:104950004EF60450CEF200004FF080510160BFF3DC
:104960004F8FBFF36F8F00BFFFF77EF8D4F838A0EA
:10497000BAF1000F7FF46EAF02980028ACD1002688
:104980008BE700268BE700002DE9F04F83B0029102
:1049900058B10446006C90B14FF0500080F311887C
:1049A000BFF36F8FBFF34F8FFEE74FF0500080F3E0
:1049B0001188BFF36F8FBFF34F8F00BFFEE70D4627
:1049C00000F074F948B945B14FF0500080F31188F8
:1049D000BFF36F8FBFF34F8FFEE7FFF745F8A16B73
:1049E000F9B1481EA063206810B9FEF797FFA060D8
:1049F00054F8100F70B1204600F0BEFA50B14EF6D8
:104A00000450CEF200004FF080510160BFF34F8F91
:104A1000BFF36F8F0124FFF74BF8204603B0BDE8CA
:104A2000F08F04F124094FF0000B01206E4602AF15
:104A30004FF000082BE000BFFFF73AF8FFF73EFB0E
:104A4000FFF712F894F84400FF2808BF84F844B038
:104A500094F84500FF2808BF84F845B0FFF728F810
:104A60003046394600F06EF8D0B12046FEF7F2FD30
:104A700000F0CAFAFEF7F8FFA56BFFF719F8002D52
:104A80004BD0FEF7F1FFA16B00200029A9D10299BC
:104A9000B1B3C007D0D03046FFF7E6F9CCE700BF8E
:104AA000FEF7E2FFD4F838A0FFF702F8BAF1000FE2
:104AB00005D02046FEF7CEFD00F0A6FAE1E720681B
:104AC00038B9FEF7D1FFA06800F00CFA8046FEF777
:104AD000EFFF02994846FFF7DDF92046FEF7BAFDE1
:104AE00000F092FA0028CCD14EF60450CEF200002D
:104AF0004FF080510160BFF34F8FBFF36F8FC0E75E
:104B0000B8F1000F1BD04FF0500080F31188BFF3B5
:104B10006F8FBFF34F8F00BFFEE7B8F1000F08D0D3
:104B2000FEF7A2FF606A30B1206B0068C0F1380167
:104B300002E0002471E70021A068FFF7E7F90024F4
:104B400069E7000070B5D8B10D4611B30446FEF711
:104B50008BFF44F66C3EC2F2000EDEF8003029688E
:104B6000481C20D044F6D42C6268C2F2000CDCF859
:104B70000000934219D32668B04216D0012424E0E5
:104B80004FF0500080F31188BFF36F8FBFF34F8F4A
:104B9000FEE74FF0500080F31188BFF36F8FBFF333
:104BA0004F8F00BFFEE700240FE0981A814209D919
:104BB000081A2860DCF800002060DEF80000606061
:104BC000002402E0002001242860FEF771FF204647
:104BD00070BD00002DE9F04383B007469000984671
:104BE00015468946FEF770FDF0B106465C20FEF7DB
:104BF0006BFDB0B10446DDE90A100022266384F89B
:104C00005920CDE90010384649462A4643460294C9
:104C1000FEF7C2FA2046FEF7A7F9012003B0BDE86F
:104C2000F0833046FEF75CFF4FF0FF3003B0BDE885
:104C3000F083000070B586B00B9CCCB10C9E06B31F
:104C40005C250495049D5C2D25D1049DDDF828C0CC
:104C5000022586F8595005AD3463CDE900C50296AA
:104C6000FEF79AFA3046FEF77FF9059806B070BD58
:104C70004FF0500080F31188BFF36F8FBFF34F8F59
:104C8000FEE74FF0500080F31188BFF36F8FBFF342
:104C90004F8F00BFFEE74FF0500080F31188BFF345
:104CA0006F8FBFF34F8F00BFFEE7000044F6383030
:104CB000C2F200000068002804BF0120704744F2DF
:104CC000AC30C2F200000068B0FA80F04009400049
:104CD0007047000044F66C30C2F200000068704774
:104CE0002DE9F04F81B044F2AC30C2F20000006810
:104CF00040B144F6E020C2F2000001680024013116
:104D00000160A0E044F66C30C2F2000001684E1C65
:104D100006602ED340F22830C2F200000168096814
:104D200049B14FF0500080F31188BFF36F8FBFF38C
:104D30004F8F00BFFEE740F23032C2F2000201683E
:104D400013680360116044F6D421C2F200010A68BE
:104D500001320A600168096821B10068C068C06852
:104D6000406801E04FF0FF3044F6D021C2F200016C
:104D7000086044F6D021C2F20001086840F2203AEF
:104D800040F238388642C2F2000AC2F2000801D26C
:104D9000002446E040F22837C2F2000738680024B9
:104DA0000068A0B344F2B43BC2F2000B1AE000BFAB
:104DB000D9F82C00DBF80010884288BFCBF800003F
:104DC00000EB800008EB80002946FEF735FED9F89D
:104DD0002C00DAF80010C96A3A68884228BF01241A
:104DE0001068B8B13868C068D0F80C904D4655F8D6
:104DF000040F864210D32846FEF7B0FDD9F82800EC
:104E00000028D5D009F11800FEF7A8FDD0E74FF033
:104E1000FF3005E04FF0FF3044F6D021C2F2000130
:104E20000860DAF80000C06A00EB800058F8200043
:104E3000012844F67830C2F2000088BF01240068DF
:104E4000002818BF0124204601B0BDE8F08F000003
:104E5000B0B580B1044640F22030C2F200000068D4
:104E6000A0420AD04FF0500080F31188BFF36F8F3B
:104E7000BFF34F8FFEE70020B0BD206D38B301387F
:104E800020654FF0000018BFB0BDE16AE26C9142AE
:104E90001CD0251D2846FEF761FDE06CC0F13801ED
:104EA000A16144F2B431E062C2F200010A689042AA
:104EB00088BF086040F2383100EB8000C2F2000188
:104EC00001EB80002946FEF7B7FD0120B0BD4FF091
:104ED000500080F31188BFF36F8FBFF34F8F00BF77
:104EE000FEE70000F0B581B000B340F22036C2F218
:104EF00000060446C06A3168C96A884219D2A169AD
:104F0000002904D43168C96AC1F13801A16140F2B5
:104F10003837616900EB8000C2F2000707EB8000C0
:104F200081420FD03068C06AE06221E0002001B009
:104F3000F0BDE16C3068C26A0020914238BF0120A8
:104F400001B0F0BD251D2846FEF708FD306844F28B
:104F5000B431C06AC2F20001E0620A68904288BFC0
:104F6000086000EB800007EB80002946FEF764FD37
:104F7000012001B0F0BD0000B0B5C068C5687DB1CA
:104F800005F118042046FEF7E9FC44F2AC30C2F209
:104F90000000006868B144F6E420C2F200001DE0A1
:104FA0004FF0500080F31188BFF36F8FBFF34F8F26
:104FB000FEE72C1D2046FEF7D1FC44F2B431C2F2CC
:104FC0000001E86A0A68904288BF086040F2383100
:104FD00000EB8000C2F2000101EB80002146FEF7E9
:104FE0002BFD40F22031C2F20001E86A0968C96A6B
:104FF000884291BF002044F67831C2F200010120BE
:1050000088BF0860B0BD00002DE9F04F81B044F2C8
:10501000AC34C2F20004206868B1FEF725FD2068B8
:1050200001382060206880B10024FEF741FD204651
:1050300001B0BDE8F08F4FF0500080F31188BFF34E
:105040006F8FBFF34F8F00BFFEE744F2A430C2F270
:1050500000000068002846D044F6E426C2F20006AC
:10506000306844F678380028C2F2000844D044F290
:10507000B43740F2383940F2203BC2F20007C2F2A6
:105080000009C2F2000B4FF0010A00BFF068C568CA
:1050900005F11800FEF762FC2C1D2046FEF75EFCB1
:1050A000E86A3968884288BF386000EB800009EB05
:1050B00080002146FEF7C0FCE86ADBF80010C96AF0
:1050C000884228BFC8F800A030680028DED140F22E
:1050D0002830C2F200000168096831B10068C06878
:1050E000C068406803E000249FE74FF0FF3044F6BB
:1050F000D021C2F20001086044F6E024C2F20004AC
:1051000025685DB1012600BFFFF7EAFD002818BF42
:10511000C8F80060013DF7D100202060D8F80000F9
:1051200060B14EF60450CEF200004FF080510160A5
:10513000BFF34F8F0124BFF36F8F76E7002474E72E
:1051400080B586B0FDF79EFF44F67030C2F20000D5
:10515000006808B30020CDE9040005A804A903AA4B
:10516000FEF71CFCDDE903200221DDF814C0CDE9C7
:10517000001043F2F130C0F600000CA10023CDF87E
:1051800008C0FFF757FD44F67431C2F20001086011
:1051900010B1012006B080BD4FF0500080F311889F
:1051A000BFF36F8FBFF34F8FFEE700BF546D7220C8
:1051B00053766300F1EE100A4FF6FF71C0F2C03172
:1051C00020EA010040F04070E1EE100A7047000054
:1051D00000000000000001020304060708090000A7
:1051E000000001020304000610160006101600005D
:1051F000165300080000000000000000000000003E
:105200000000000000020000180000000000000084
:1052100000000000D852000800000000000000005C
:1052200000000000E652000800000000000000003E
:105230000000000000000000000200001800000054
:105240000000000000000000EF5200080000000015
:10525000000000000000000000000000000200004C
:10526000180000000000000000000000F8520008D4
:10527000000000000000000000000000000000002E
:105280000002000008000000000000000000000014
:1052900001530008000000000000000000000000B2
:1052A00000000000000200000800000000000000F4
:1052B000000000000A530008000000000000000089
:1052C00000000000000000000002000010000000CC
:1052D00000000000000000006D7942696E61727983
:1052E00053656D3031006D795461736B3032006DF0
:1052F000795461736B3033006D795461736B303462
:10530000006D795461736B3035006D79556172743D
:10531000315461736B0064656661756C74546173BC
:105320006B0000004853000800000020100000003F
:10533000C4010008585300081000002070510000FC
:10534000E0010008000000000024F400010000005B
:0853500010000000AAAAAAAA9D
:040000050800018965
:00000001FF
